:100000000C9462000C948A000C948A000C948A0070
:100010000C948A000C948A000C948A000C948A0038
:100020000C948A000C948A000C948A000C94EB04C3
:100030000C948A000C948A000C948A000C948A0018
:100040000C94A1040C948A000C946F040C94490441
:100050000C948A000C948A000C948A000C948A00F8
:100060000C948A000C948A000000000024002700F1
:100070002A0000000000250028002B0000000008D6
:10008000000201000003040700000000000000005F
:1000900000000000230026002900040404040404D6
:1000A0000404020202020202030303030303010227
:1000B00004081020408001020408102001020408F6
:1000C0001020EC0511241FBECFEFD8E0DEBFCDBF5E
:1000D00011E0A0E0B1E0E0E7F3E102C005900D928D
:1000E000A635B107D9F722E0A6E5B1E001C01D921F
:1000F000A437B207E1F710E0C2E6D0E004C02197D0
:10010000FE010E94B009C136D107C9F70E948306DB
:100110000C94B6090C940000E6E6F1E0A089B189E0
:1001200082E08C93A485B5851C92A685B7858FEC5B
:100130008C93108EA489B58986E08C93A289B389AB
:100140008C9180618C93A289B3898C9188608C9307
:10015000A289B3898C9180688C930288F389E02D01
:1001600080818F7D80830895AF92BF92CF92DF927E
:10017000EF92FF920F931F93CF93DF936C017B015C
:100180008B01040F151FEB015E01AE18BF08C017ED
:10019000D10759F06991D601ED91FC910190F08160
:1001A000E02DC6010995892B79F7C501DF91CF9123
:1001B0001F910F91FF90EF90DF90CF90BF90AF9085
:1001C0000895FC01538D448D252F30E0842F90E05D
:1001D000821B930B541710F0CF9608950197089542
:1001E000FC01918D828D981761F0A28DAE0FBF2F0B
:1001F000B11D5D968C91928D9F5F9F73928F90E061
:1002000008958FEF9FEF0895FC01918D828D9817CF
:1002100031F0828DE80FF11D858D90E008958FEF0C
:100220009FEF0895FC01918D228D892F90E0805CD5
:100230009F4F821B91098F739927089586E691E05D
:100240000E94120121E0892B09F420E0822F0895F9
:1002500080E090E0892B29F00E941E0181110C940E
:1002600000000895FC01A48DA80FB92FB11DA35A59
:10027000BF4F2C91848D90E001968F739927848FC6
:10028000A689B7892C93A089B1898C9183708064E9
:100290008C93938D848D981306C00288F389E02D8A
:1002A00080818F7D80830895EF92FF920F931F933B
:1002B000CF93DF93EC0181E0888F9B8D8C8D981319
:1002C0001AC0E889F989808185FF15C09FB7F89425
:1002D000EE89FF896083E889F98980818370806471
:1002E00080839FBF81E090E0DF91CF911F910F91BC
:1002F000FF90EF900895F62E0B8D10E00F5F1F4FCB
:100300000F731127E02E8C8D8E110CC00FB607FCD9
:10031000FACFE889F989808185FFF5CFCE010E9467
:100320003201F1CFEB8DEC0FFD2FF11DE35AFF4FA2
:10033000F0829FB7F8940B8FEA89FB8980818062F5
:10034000CFCFCF93DF93EC01888D8823B9F0AA89B2
:10035000BB89E889F9898C9185FD03C0808186FD80
:100360000DC00FB607FCF7CF8C9185FFF2CF8081CF
:1003700085FFEDCFCE010E943201E9CFDF91CF9111
:10038000089590E0FC01E458FF4F2491FC01E255F0
:10039000FF4F3491FC01E656FF4FE491EE23C9F084
:1003A000222339F0233001F1A8F4213019F1223051
:1003B00029F1F0E0EE0FFF1FEE58FF4FA591B49129
:1003C0008FB7F894EC91611126C030953E233C9391
:1003D0008FBF08952730A9F02830C9F0243049F79D
:1003E000809180008F7D03C0809180008F77809303
:1003F0008000DFCF84B58F7784BDDBCF84B58F7D60
:10040000FBCF8091B0008F778093B000D2CF8091E6
:10041000B0008F7DF9CF3E2BDACFCF93DF9390E002
:10042000FC01E255FF4F249186569F4FFC018491B9
:100430008823D1F090E0880F991FFC01E859FF4F05
:10044000A591B491FC01EE58FF4FC591D491611173
:100450000EC09FB7F8948C91E22FE0958E238C9379
:100460002881E223E8839FBFDF91CF9108958FB762
:10047000F894EC91E22BEC938FBFF6CF3FB7F89452
:1004800080915C0190915D01A0915E01B0915F014E
:1004900026B5A89B05C02F3F19F00196A11DB11DDF
:1004A0003FBFBA2FA92F982F8827BC01CD01620F1B
:1004B000711D811D911D42E0660F771F881F991FD6
:1004C0004A95D1F708958F929F92AF92BF92CF92A3
:1004D000DF92EF92FF924B015C010E943E026B01A2
:1004E0007C010E943E026C197D098E099F09683EBD
:1004F000734081059105A8F321E0821A9108A108B3
:10050000B10888EEC80E83E0D81EE11CF11C8114EE
:100510009104A104B10429F7FF90EF90DF90CF90F0
:10052000BF90AF909F908F9008952FB7F8946091EF
:1005300058017091590180915A0190915B012FBF30
:100540000895CF92DF92EF92FF92CF93DF93EC0169
:10055000603282E07807CCF5653B710514F064EBFE
:1005600070E0898128E830E0281B310987FD339548
:10057000220F331F220F331F6901330FEE08FF08CC
:100580008A8128E532E0281B310987FD3395220F47
:10059000331F220F331F032E000C440B550B2C1955
:1005A0003D094E095F09DB0177FF02C0B0E0A0E022
:1005B0000E94650924EB30E040E050E00E943B09D6
:1005C000C20ED31EE41EF51EB601E881EC3070F5B4
:1005D000298188E890E0821B910927FD9395880F77
:1005E000991F880F991F681779077CF02A8188E581
:1005F00092E0821B910927FD9395880F991F880F20
:10060000991F681779070CF4CB010297880F991F7F
:100610004FB7F8942E2F30E0F901EE0FFF1FE20FD5
:10062000F31FE75BFD4F928381834FBFDF91CF9133
:10063000FF90EF90DF90CF9008951F93CF93DF93BB
:10064000EC01162F88818C3008F04EC061E0812FBC
:100650000E940D028881282F30E0F901EE0FFF1F64
:10066000E20FF31FE75BFD4F1F736081607C612B1E
:10067000608319821A822CE0622F0E947C09829F7B
:10068000B001112430E020E0AB01420F531FFA010A
:10069000EE0FFF1FE40FF51FE75BFD4F908196FD06
:1006A00016C02F5F3F4F2C30310571F781110FC0FD
:1006B0001092800082E08093810010928500109259
:1006C0008400B19A80916F00826080936F00E8810E
:1006D0008E2F90E0FC01EE0FFF1FE80FF91FE75B84
:1006E000FD4F8081806480838881DF91CF911F914D
:1006F0000895FC0101900020E9F73197AF01481BF4
:10070000590BBC0186E691E00C94B4008F929F9245
:10071000AF92BF920F931F93CF93DF93CDB7DEB706
:10072000A1970FB6F894DEBF0FBECDBF19A242301D
:1007300008F44AE08E010F5D1F4F842E912CB12CDE
:10074000A12CA50194010E941909E62FB901CA0143
:10075000EA30F4F4E05DD801EE938D01232B242BD5
:10076000252B79F790E080E0109719F0CD010E94D9
:100770007903A1960FB6F894DEBF0FBECDBFDF910F
:10078000CF911F910F91BF90AF909F908F90089540
:10079000E95CE1CFCF92DF92EF92FF92CF93DF93AC
:1007A0006C01990FEE08FF08F7FE1FC06DE286E6A8
:1007B00091E00E945401EC0166277727CB016C1968
:1007C0007D098E099F094AE00E948603C80FD91F40
:1007D00084E191E00E9479038C0F9D1FDF91CF91FE
:1007E000FF90EF90DF90CF9008954AE0C701B601E7
:1007F0000E948603EC01ECCF1F93CF93DF9300D0D0
:1008000000D0CDB7DEB786E691E00E94F00086E624
:1008100091E00E94F00010E08A3379F0E1E0F0E02E
:10082000EC0FFD1FE10FF11D17FDFA9580831F5F8F
:1008300086E691E00E94F000EFCFCE0101960E9483
:10084000F308182F86E691E00E94F0008053990B80
:100850008230910520F4682F812F0E94C10186E625
:1008600091E00E94F0008A3011F08D30C1F786E6E9
:1008700091E00E9404018A3021F486E691E00E9412
:10088000F0000F900F900F900F90DF91CF911F917C
:1008900008951F920F920FB60F9211242F933F933A
:1008A0004F935F936F937F938F939F93AF93BF9378
:1008B000EF93FF9386E691E00E943201FF91EF9162
:1008C000BF91AF919F918F917F916F915F914F9168
:1008D0003F912F910F900FBE0F901F9018951F9270
:1008E0000F920FB60F9211242F938F939F93EF9334
:1008F000FF93E0917601F09177018081E0917C0196
:10090000F0917D0182FD1BC0908180917F018F5FFE
:100910008F7320918001821741F0E0917F01F0E018
:10092000EA59FE4F958F80937F01FF91EF919F9140
:100930008F912F910F900FBE0F901F90189580816F
:10094000F4CF1F920F920FB60F9211242F933F9363
:100950008F939F93AF93BF938091580190915901CA
:10096000A0915A01B0915B013091570123E0230F10
:100970002D3758F50196A11DB11D20935701809385
:10098000580190935901A0935A01B0935B01809153
:100990005C0190915D01A0915E01B0915F010196B3
:1009A000A11DB11D80935C0190935D01A0935E0138
:1009B000B0935F01BF91AF919F918F913F912F9124
:1009C0000F900FBE0F901F90189526E8230F0296E8
:1009D000A11DB11DD2CF1F920F920FB60F921124FD
:1009E0002F933F934F935F936F937F938F939F9337
:1009F000AF93BF93CF93DF93EF93FF938091560113
:100A0000C0916D02D0E087FF24C010928500109243
:100A10008400809156018F5F80935601809156012A
:100A2000082E000C990B8C179D0724F48091560119
:100A30008C30C4F1809184009091850004968034BC
:100A40009C4908F47AC080918400909185000496B6
:100A500076C080915601082E000C990B8C179D07CB
:100A6000C4F6E09156018E2FEE0F990BFC01EE0FAC
:100A7000FF1FE80FF91FE75BFD4F808186FFC9CF9D
:100A8000E09156018E2FEE0F990BFC01EE0FFF1F28
:100A9000E80FF91FE75BFD4F808160E08F730E94D4
:100AA000C101B7CF2091840030918500E0915601BB
:100AB0008E2FEE0F990BFC01EE0FFF1FE80FF91FB1
:100AC000E75BFD4F81819281820F931F9093890094
:100AD00080938800E09156018E2FEE0F990BFC0158
:100AE000EE0FFF1FE80FF91FE75BFD4F808186FFC8
:100AF00011C0E09156018E2FEE0F990BFC01EE0F05
:100B0000FF1FE80FF91FE75BFD4F808161E08F73E6
:100B10000E94C101FF91EF91DF91CF91BF91AF9101
:100B20009F918F917F916F915F914F913F912F9105
:100B30000F900FBE0F901F90189580E49CE9909342
:100B40008900809388008FEF80935601E3CFCF9286
:100B5000DF92EF92FF920F931F93E82FF92F05C0BA
:100B6000015011092109310961F1908196239417EF
:100B7000B9F305C0015011092109310911F1908122
:100B800096239413F7CFC12CD12CE12CF12C0AC061
:100B90008FEFC81AD80AE80AF80A0C151D052E05A9
:100BA0003F0579F080818623841791F36C2D7D2D8C
:100BB0008E2D9F2D1F910F91FF90EF90DF90CF9082
:100BC000089560E070E080E090E01F910F91FF9049
:100BD000EF90DF90CF900895109269011092680114
:100BE00088EE93E0A0E0B0E080936A0190936B01FF
:100BF000A0936C01B0936D0186E091E09093670142
:100C00008093660185EC90E090937301809372016C
:100C100084EC90E0909375018093740180EC90E0F7
:100C2000909377018093760181EC90E09093790125
:100C30008093780182EC90E090937B0180937A011D
:100C400086EC90E090937D0180937C0110927F016F
:100C5000109280011092810110928201109209027B
:100C600010920A0210920B0210920C0210920D02C6
:100C700010920E0210920F021092100210921102A6
:100C80001092120210921302109214021092150286
:100C900010921602109217021092180280916D02A3
:100CA0008C3048F591E0980F90936D02809371021B
:100CB00090E0FC01EE0FFF1FE80FF91FE75BFD4F0F
:100CC00088EB9BE09283818380916D028C30B8F435
:100CD00091E0980F90936D0280936E0290E0FC017A
:100CE000EE0FFF1FE80FF91FE75BFD4F88EB9BE05E
:100CF0009283818308958FEF80937102E5CF8FEF08
:100D000080936E020895789484B5826084BD84B522
:100D1000816084BD85B5826085BD85B5816085BDF6
:100D200080916E00816080936E00109281008091AE
:100D30008100826080938100809181008160809336
:100D40008100809180008160809380008091B1005B
:100D500084608093B1008091B00081608093B00086
:100D600080917A00846080937A0080917A0082601A
:100D700080937A0080917A00816080937A008091DC
:100D80007A00806880937A001092C1001092450228
:100D900010924602109247021092480210920502E9
:100DA0001092060210920702109208020E94950209
:100DB0006B017C014B015C0128EB820E2BE0921E43
:100DC000A11CB11C0E9495026C157D058E059F0526
:100DD00028F086169706A806B906A0F768EE73E015
:100DE00080E090E00E9463020E948C000E949502C5
:100DF00060930502709306028093070290930802A5
:100E000087E191E00E9479030E9495026B017C01C9
:100E10004B015C013AE0830E911CA11CB11C0E94A5
:100E200095026C157D058E059F0528F086169706A0
:100E3000A806B906A0F781E0809319020E949502E6
:100E40006093050270930602809307029093080254
:100E500088E291E00E9479030E948C0061E083E0C7
:100E60000E940D0260E084E00E940D0261E087E0D4
:100E70000E940D0265E070E081E792E00E941D0390
:100E800069E070E08EE692E00E941D0330E0232EC0
:100E900030E0332E44EF842E99249394A12CB12C6E
:100EA0000E949502672B682B692B09F4EFC00E9402
:100EB00095020091620110916301209164013091CB
:100EC0006501601771078207930708F463C10091F9
:100ED00062011091630120916401309165016B0101
:100EE0007C01C01AD10AE20AF30A970186010A3F7F
:100EF00011052105310508F4D1C06093620170939A
:100F00006301809364019093650180921102909235
:100F10001202A0921302B0921402109215021092C3
:100F200016021092170210921802809109029091F5
:100F30000A02A0910B02B0910C0280930D029093D3
:100F40000E02A0930F02B09310020E9495026093CC
:100F5000090270930A0280930B0290930C0286E6BA
:100F600091E00E940401843611F40E94FC030E9467
:100F70009502609305027093060280930702909396
:100F800008020E9495022B013C018FE291E00E9431
:100F900079034AE061E070E080E090E00E9486031F
:100FA00086E391E00E9479034AE0C301B2010E9406
:100FB000860388E391E00E94790380910902909171
:100FC0000A02A0910B02B0910C02A3019201281B0E
:100FD000390B4A0B5B0BCA01B9014AE00E94860338
:100FE00088E391E00E9479036091090270910A02FE
:100FF00080910B0290910C0200910D0210910E0253
:1010000020910F0230911002601B710B820B930B29
:101010004AE00E9486038AE391E00E9479030E94DD
:1010200095024AE00E9486038CE391E00E947903D6
:1010300084E191E00E9479030E9495026B017C019A
:101040002B013C0135E0430E511C611C711C0E94B8
:1010500095026C157D058E059F0528F046165706EE
:1010600068067906A0F786E691E00E9404018436BE
:1010700011F40E94FC030E94950260930902709390
:101080000A0280930B0290930C0208C00E94950202
:10109000623071058105910508F009CF60E083E0B9
:1010A0000E94C10183E090E00197F1F761E083E0E5
:1010B0000E94C10183E290E00197F1F760E083E0D4
:1010C0000E94C101E2EBF0E06491EEE9F0E084916E
:1010D000E82FF0E0EE0FFF1FE057FF4F859194914E
:1010E00004E418E420E030E0462F0E94A7056115D3
:1010F00071058105910529F06F5F7F4F8F4F9F4FDD
:101100009F70CB016CE370E00E9488098B0183E43F
:1011100091E00E947903C8010E94CA03C0910001B6
:10112000D091010101151105F1F10B301105DCF52C
:101130008CE5C82ED12CCC1ADD0AB60181E792E0ED
:101140000E94A102B6018EE692E00E94A10260E236
:1011500073E080E090E00E946302EE24E394F12CBF
:10116000F0926101E09260018EE491E00E947903C7
:1011700080916001909161010E94CA0321143104A1
:1011800009F48ECE0E941E01882309F489CE0E94A4
:10119000000086CE609362017093630180936401C6
:1011A0009093650194CEBE01645A7F4F81E792E02F
:1011B0000E94A1026CE570E06C1B7D0B8EE692E054
:1011C0000E94A1028091600190916101892B61F2DE
:1011D00060ED77E080E090E00E94630210920101F0
:1011E00010920001C1CFFC0188279927E894219132
:1011F0002032E9F3293010F02E30C8F32B3241F0C1
:101200002D3239F4689404C00E941109820F911D97
:10121000219120532A30C0F31EF4909581959F4F61
:1012200008957AE0979F902D879F802D910D11242E
:101230000895A1E21A2EAA1BBB1BFD010DC0AA1F17
:10124000BB1FEE1FFF1FA217B307E407F50720F02F
:10125000A21BB30BE40BF50B661F771F881F991FAA
:101260001A9469F760957095809590959B01AC01F3
:10127000BD01CF010895052E97FB1EF400940E9436
:10128000520957FD07D00E94190907FC03D04EF4FC
:101290000C94520950954095309521953F4F4F4FF2
:1012A0005F4F089590958095709561957F4F8F4F12
:1012B0009F4F08950E946D09A59F900DB49F900DBA
:1012C000A49F800D911D11240895B7FF0C945A0915
:1012D0000E945A09821B930B0895A29FB001B39FED
:1012E000C001A39F700D811D1124911DB29F700D2F
:1012F000811D1124911D0895991B79E004C0991F47
:10130000961708F0961B881F7A95C9F7809508955F
:1013100097FB072E16F4009407D077FD09D00E94A2
:101320009C0907FC05D03EF4909581959F4F089548
:10133000709561957F4F0895AA1BBB1B51E107C0B3
:10134000AA1FBB1FA617B70710F0A61BB70B881F55
:10135000991F5A95A9F780959095BC01CD010895E4
:10136000EE0FFF1F0590F491E02D0994F894FFCF44
:101370001E00000000005401B400E100A1011201B0
:10138000F00004010D0A00564D4450565F317C3187
:101390005F564D4450560A00564D4450525F005619
:1013A0004D4450455F003A323A007C005F564D4450
:1013B00050450064697374616E63653A2000666C21
:0613C00061673A20000005
:107800000C94343C0C94513C0C94513C0C94513CE1
:107810000C94513C0C94513C0C94513C0C94513CB4
:107820000C94513C0C94513C0C94513C0C94513CA4
:107830000C94513C0C94513C0C94513C0C94513C94
:107840000C94513C0C94513C0C94513C0C94513C84
:107850000C94513C0C94513C0C94513C0C94513C74
:107860000C94513C0C94513C11241FBECFEFD8E036
:10787000DEBFCDBF11E0A0E0B1E0ECE9FFE702C060
:1078800005900D92A230B107D9F712E0A2E0B1E065
:1078900001C01D92AD30B107E1F70E942D3D0C945F
:1078A000CC3F0C94003C982F959595959595959582
:1078B000905D8F708A307CF0282F295A8091C0000B
:1078C00085FFFCCF9093C6008091C00085FFFCCF60
:1078D0002093C6000895282F205DF0CF982F809127
:1078E000C00085FFFCCF9093C6000895EF92FF92F1
:1078F0000F931F93EE24FF2487018091C00087FD22
:1079000017C00894E11CF11C011D111D81E4E8164B
:1079100082E4F8068FE0080780E0180770F3E09132
:107920000401F091050109958091C00087FFE9CF1E
:107930008091C6001F910F91FF90EF9008950E94D3
:10794000763C982F8091C00085FFFCCF9093C600B5
:1079500091362CF490330CF09053892F089597555D
:10796000892F08951F930E949F3C182F0E949F3CCF
:107970001295107F810F1F9108951F93182F882350
:1079800021F00E94763C1150E1F71F9108951F935A
:10799000182F0E94763C803249F0809103018F5F5E
:1079A000809303018530C1F01F9108958091C0003C
:1079B00085FFFCCF84E18093C6008091C00085FFE5
:1079C000FCCF1093C6008091C00085FFFCCF80E102
:1079D0008093C6001F910895E0910401F091050184
:1079E00009951F9108950E94763C803241F0809164
:1079F00003018F5F80930301853081F008958091AA
:107A0000C00085FFFCCF84E18093C6008091C00058
:107A100085FFFCCF80E18093C6000895E0910401CA
:107A2000F09105010995089540E951E08823A1F0FE
:107A30002D9A28EE33E0FA013197F1F721503040CA
:107A4000D1F72D9828EE33E0FA013197F1F7215064
:107A50003040D1F7815061F708953F924F925F9285
:107A60006F927F928F929F92AF92BF92CF92DF924E
:107A7000EF92FF920F931F93CF93DF93000080E16B
:107A80008093C4001092C50088E18093C10086E015
:107A90008093C2005098589A259A81E00E94143D24
:107AA00024E1F22E9EE1E92E85E9D82E0FE0C02ECA
:107AB00010E1B12EAA24A394B1E49B2EA6E58A2E50
:107AC000F2E57F2EE0E26E2E79E4572E63E5462E36
:107AD00050E5352E0E94763C8033B1F18133B9F107
:107AE000803409F46FC0813409F476C0823409F41B
:107AF00085C0853409F488C0803531F1823521F1A3
:107B0000813511F1853509F485C0863509F48DC0BC
:107B1000843609F496C0843709F403C1853709F423
:107B200072C1863709F466C0809103018F5F80932C
:107B30000301853079F6E0910401F0910501099582
:107B40000E94763C803351F60E94F33CC3CF0E94E2
:107B5000763C803249F78091C00085FFFCCFF092DF
:107B6000C6008091C00085FFFCCF9092C600809136
:107B7000C00085FFFCCF8092C6008091C00085FFC9
:107B8000FCCF7092C6008091C00085FFFCCF609250
:107B9000C6008091C00085FFFCCF5092C600809146
:107BA000C00085FFFCCF4092C6008091C00085FFD9
:107BB000FCCF3092C6008091C00085FFFCCFB09210
:107BC000C60088CF0E94763C863808F4BDCF0E945C
:107BD000763C0E94F33C7ECF0E94763C803809F4CC
:107BE0009CC0813809F40BC1823809F43CC1883942
:107BF00009F48FC080E00E94C73C6CCF84E10E94F2
:107C0000BD3C0E94F33C66CF85E00E94BD3C0E94D3
:107C1000F33C60CF0E94763C809306010E94763C44
:107C2000809307010E94F33C55CF0E94763C80333D
:107C300009F41DC183E00E94BD3C80E00E94C73C66
:107C400049CF0E94763C809309020E94763C809343
:107C5000080280910C028E7F80930C020E94763C79
:107C6000853409F415C18091080290910902892B8D
:107C700089F000E010E00E94763CF801E85FFE4FDA
:107C800080830F5F1F4F80910802909109020817AF
:107C9000190788F30E94763C803209F045CF809125
:107CA0000C0280FF01C16091060170910701660F0F
:107CB000771F7093070160930601A0910802B091AD
:107CC00009021097C9F0E8E0F1E09B01AD014E0F09
:107CD0005F1FF999FECF32BD21BD819180BDFA9A17
:107CE000F99A2F5F3F4FE417F50799F76A0F7B1F4B
:107CF00070930701609306018091C00085FFFCCF5F
:107D0000F092C6008091C00085FFFCCFB092C60003
:107D1000E1CE83E00E94C73CDDCE82E00E94C73CFA
:107D2000D9CE0E94763C809309020E94763C8093D3
:107D300008028091060190910701880F991F909386
:107D40000701809306010E94763C853409F4A6C0A1
:107D500080910C028E7F80930C020E94763C8032D0
:107D600009F0B8CE8091C00085FFFCCFF092C6002C
:107D7000609108027091090261157105B9F140E046
:107D800050E080910C02A82FA170B82FB27011C0E2
:107D9000BB2309F45CC0E0910601F0910701319624
:107DA000F0930701E09306014F5F5F4F46175707B7
:107DB000E8F4AA2369F3F999FECF209106013091E6
:107DC000070132BD21BDF89A90B58091C00085FFB2
:107DD000FCCF9093C6002F5F3F4F30930701209355
:107DE00006014F5F5F4F4617570718F38091C00099
:107DF00085FDE5CE8091C00085FFF8CFE0CE81E023
:107E00000E94C73C67CE0E94763C803209F08CCE3F
:107E10008091C00085FFFCCFF092C6008091C00029
:107E200085FFFCCFE092C6008091C00085FFFCCFAB
:107E3000D092C6008091C00085FFFCCFC092C600E2
:107E40008091C00085FFFCCFB092C60043CEE09188
:107E50000601F091070194918091C00085FFFCCF4D
:107E60009093C6009CCF80E10E94C73C33CE0E9415
:107E7000763C0E94763C182F0E94763C112309F430
:107E800083C0113009F484C08FE00E94C73C22CE29
:107E900080910C02816080930C02E5CE80910C02EF
:107EA000816080930C0259CF809107018823880F4D
:107EB000880B8A2180930B02809106019091070123
:107EC000880F991F90930701809306018091080203
:107ED00080FF09C080910802909109020196909359
:107EE000090280930802F894F999FECF1127E091D6
:107EF0000601F0910701C8E0D1E08091080290915D
:107F00000902103091F40091570001700130D9F34B
:107F100003E000935700E89500915700017001308D
:107F2000D9F301E100935700E89509901990009169
:107F3000570001700130D9F301E000935700E89534
:107F40001395103498F011270091570001700130FB
:107F5000D9F305E000935700E895009157000170B0
:107F60000130D9F301E100935700E895329602976A
:107F700009F0C7CF103011F00296E5CF112480919F
:107F8000C00085FFB9CEBCCE8EE10E94C73CA2CD19
:0C7F900085E90E94C73C9ECDF894FFCF0D
:027F9C00800063
:040000030000780081
:00000001FF